:100000000C944D170C947E170C947E170C947E174D
:100010000C947E170C947E170C947E170C947E170C
:100020000C947E170C947E170C947E170C947E17FC
:100030000C947E170C947E170C947E170C947E17EC
:100040000C947E170C947E170C947E170C947E17DC
:100050000C947E170C947E170C947E170C945D28DC
:100060000C947E170C94452C0C941C2C0C947E172D
:100070000C947E170C947E170C947E170C947E17AC
:100080000C947E170C947E170C947E170C947E179C
:100090000C947E170C947E170C947E170C941D2FD5
:1000A0000C947E170C947E170C947E170C947E177C
:1000B0000C947E170C947E170C947E170C947E176C
:1000C0000C947E170C947E170C947E170C947E175C
:1000D0000C947E170C947E170C947E170C947E174C
:1000E0000C947E1732263526242628262E266C26AA
:1000F00039263D26432647264B2651265526592686
:100100006C265F266326672600407A10F35A00A00B
:10011000724E18090010A5D4E80000E876481700D0
:1001200000E40B54020000CA9A3B000000E1F50510
:10013000000080969800000040420F000000A0865A
:1001400001000000102700000000E803000000008C
:100150006400000000000A00000000000100000030
:1001600000002C76D888DC674F0823DFC1DFAE594A
:10017000E1B1B796E5E3E453C63AE651997696E8DD
:10018000E6C28426EB898C9B62ED407C6FFCEFBC61
:100190009C9F40F2BAA56FA5F490055A2AF75C938C
:1001A0006B6CF9676DC11BFCE0E40D47FEF520E6C2
:1001B000B500D0ED902E0300943577050080841EA5
:1001C000080000204E0A000000C80C333333330F00
:1001D000986E12831141EF8D2114893BE65516CF9D
:1001E000FEE6DB18D1844B381BF77C1D901DA4BBA9
:1001F000E424203284725E228100C9F124ECA1E55E
:100200003D27BF0003020304030504060B00FE089C
:10021000FE09FF014C029507FC2005006607210737
:10022000C143C7A00822071B57476209230EBD42DE
:100230004F294906A53228A52401240ECD3E57B6E4
:1002400054946C4B94CA1601250DC5424FA4740BEF
:10025000B3A4454A00260FC5424F9644495649A4C7
:10026000248A940027071B578F5202280B533F57AD
:100270001225515B9405290C533F471665514B9449
:1002800044002A0BAD464F2D1AA42C49002B0AAD71
:100290004657180D5218012C07A33A8FA5042D06B6
:1002A0008C4EC7102E061243C7102F0CD53E672D5B
:1002B000CCC22CCCC210300AC4428F924C9E120584
:1002C0003108C34257B2443D320AC442C71265A541
:1002D000B621330CC442C7982562960D0900340B31
:1002E000C4425764E932445902350CC442C7A06580
:1002F00063960D0900360CC4428F92654B644A1414
:1003000000370BC442C79095B2282B01380CC44269
:100310008F12498912991205390BC4428F12999292
:10032000ADA2003A082A43C7100D013B09BB3A8F22
:1003300051514A003C08BC425FD4D8003D089D4A58
:10034000C7A00E023E08BC4247D8D4063F0CC542A7
:10035000CF9285591D0A2300400DC5429714494B81
:10036000A22492920E410BC4428FA444D23099022F
:10037000420CC442C712494312998604430AC4423C
:100380008F12699D1205440BC442879494BC2412B9
:1003900000450BC442C7A0654B561B02460A4443A6
:1003A000C7A0654BD606470BC4428F126995494AD0
:1003B00006480AC44247641A26A70049084343C7AF
:1003C00012F5324A0AC44297D6264989024B0BC419
:1003D00042476449A4A493144C08C44247D6B721A9
:1003E0004D0DC54247B60CC9922889660B4E0BC409
:1003F0004247242D8B7292024F0AC4428F12F99405
:100400002800500BC442C712998624AB01510ACC74
:100410003E8F12392D8E01520BC442C7124943D26E
:100420009314530BC4428F1289452951005409C5B6
:1004300042C720857D025509C44247E4A7440156BE
:100440000CC54247E69694922C8C00570DC5424746
:10045000E69228C9B0949204580BC44247644A24D7
:10046000253205590CC54247A625A5240B9B005AE9
:100470000CC442C79045599445D9105B09533FC7F6
:1004800010F5D3005C0CD53E4798866998866918AC
:100490005D09533FC7D44F43005E089D565796D41D
:1004A000025F068C42C71060071B57879405610ADC
:1004B000B4428F980C91940C620BC44247962D91D4
:1004C000D390006309B4428F1269C501640AC44223
:1004D0005F65889C92016509B4428F120D5B386696
:1004E0000BC44297924543923501670CC43ACF1032
:1004F00099064D1A1200680AC44247561912C929B2
:1005000069094B434F144A5D066A0B5C3A5F59EB2D
:1005100026250A006B0CC44247565212292949016C
:100520006C08434387D497016D0DB542C72551121E
:10053000255112A5006E0AB4424732249253006F2F
:100540000AB4428F1239250A00700BC43AC7123917
:100550000D499601710AC43ACF1039255B01720921
:10056000B442C790B43501730AB442CF9089DA908F
:1005700000740AC4424F160D49D6287508B4424784
:10058000E42919760CB54247A625A5240B2300774C
:100590000CB54247664994CA942400780BB442478C
:1005A000242592124901790CC43A47644A2A5A1404
:1005B00049007A0AB442C790456D43007B0BD53E93
:1005C0009F14963435AC0A7C07D13FC743007D0C9D
:1005D000D53E871A5635292C69007E099D564FA4B1
:1005E000245202A0089D4247A60D03A107C13B87E4
:1005F0003208A20BC43E573424FD342500A30CC599
:10060000429754C9B630CB8601A40BAD4647964CF1
:1006100049B46401A50EC54247A62595418A06291D
:100620008C00A608D13FC7100D01A70FD43A8F1236
:10063000259912498996448902A807135B47A204A9
:10064000A90F4E3E97162589B2DD14A5944900AA3C
:100650000AB44A8F980C433804AB09A5464F2425A9
:100660005103AC079C46C79015AD060B4FC700AEB3
:10067000114E3E97162589255992C592285126017B
:10068000AF068C5EC710B009A4528F12498902B11F
:100690000CBD4257180D5298038300B209AC528F1B
:1006A00012350D01B309AC52C798884302B4071B39
:1006B00057575202B50AC43A47E46548B40CB6101D
:1006C000C542CFA0244A4589922889922809B706B5
:1006D000124BC710B809A43A57160E0900B9072AD9
:1006E00053CFD200BA0AB44A8F1249893A04BB0ADE
:1006F000A54647D412490900BC10D53A4F264649B1
:10070000494B2A9A34640900BD0ED53A4F26464912
:10071000494B3A66D900BE0FD53A879A4591B22522
:10072000154D1AB204BF0CC53A57984359314B16B0
:1007300000C00BCC424F1859A2613205C10BCC420C
:10074000574D52A2613205C20CCC42572591946894
:10075000984C01C30CCC424FA2449668984C01C4FB
:100760000FCD4287226B526548A2244AA204C50CD1
:10077000CC428F122592120D9329C60FC542CF90FD
:100780004849940C5312255132C70CD43A8F126940
:100790009D122D8A00C80CCC424F980C5AB664D9D1
:1007A00010C90CCC425769D0B225CB8600CA0CCCFC
:1007B000425765D8B225CB8600CB0ECD4287A20E1C
:1007C00049184E61382400CC0A4B4347962C519768
:1007D00001CD0A4B4357922C519701CE0A4B434F00
:1007E0006548A22E03CF0ACD4287226F61B705D09C
:1007F0000F45428F9644D190949228294900D10CFC
:10080000CC424FA2949645394901D20BCC424F18A5
:100810002991A74401D30BCC42574D893C250A00AE
:10082000D40BCC42572551224F8902D50CCC424FD4
:10083000A2444AE4295100D60FCD4287224B952885
:10084000899228892209D70AAD464796D42AB5004D
:10085000D810563E6F34B54889A4444A549A520081
:10086000D90BCC424F98443E250A00DA09CC4257B6
:10087000934F8902DB0BCC4257258C3C250A00DCC8
:1008800011CD4287A24649944449944449144900F1
:10089000DD0BCD425F29D3925AD804DE0CC4424707
:1008A000962D9134245906DF0AC4428F12299D5C8B
:1008B00004E00CCC424F188BC91049C900E10CCCA4
:1008C00042571D109321929201E20CCC42572515FC
:1008D0009321929201E30CCC424FA2C46232445263
:1008E00032E40BCC424F573119222919E50CCC4286
:1008F00057258AC46488A464E60DB542872225C9B9
:10090000A04449A408E70AC43A8F1269C5A904E8BB
:100910000BCC424F182BD1B08503E90BCC42571DAD
:1009200050A2610B07EA0BCC42572555A2610B0779
:10093000EB0ACC424F57251AB670EC094B434716C9
:100940004A5D06ED084B434F55EA32EE084B434FE4
:100950009BD465EF0A4B4347A264529701F00CC445
:10096000424792885122991205F10CCC424FA2A421
:10097000C990484E01F20BCC424F182B9153A20064
:10098000F30BCC42571D5022A74401F40BCC425725
:10099000255522A74401F50CCC424FA2C44AE49449
:1009A0002800F60BCC424F5725724A1400F70CBDB5
:1009B00042579803830E841100F80D463E6F34B5FC
:1009C000484A549A5200F90ACC424F98469E9201E6
:1009D000FA09CC425739F2940CFB0ACC4257258CC9
:1009E0003C2503FC09CC424FC7C85332FD0DDC3A0D
:1009F00057393225152D8A2400FE0DD43A47564921
:100A00004CD2A2D43200FF0DDC3A4FC7C89454B484
:100A1000289200000000005F00040305050405069D
:100A20001614FDFC0EFC0EFE028805D708342006C5
:100A300000602C012111C4253443E2E0C0424499F6
:100A4000C4418404002209A5644641821702231F81
:100A50008B616449424C424C42E660E26046424C43
:100A600042E660E26046424C424C42080024234980
:100A7000A65B2930AC4622A224A224A422C8E620E8
:100A8000E420C628A224A422A42242A62C300800D6
:100A9000252CEEE17B65464A6422482644482624FC
:100AA0004A26424A24DD8870CC98884854884C9065
:100AB000884C508C4C8C92A0A8A950002623D0259D
:100AC0008C8B5644524652467242B478A6C646684B
:100AD000822468A66A886A8AA6E620E4660400275B
:100AE00008A2642EE16000281205A2334744644442
:100AF0006444466F6664668404291105A233414844
:100B0000664666469F8C888CA8012A12E7E04565F8
:100B100024C94484C88844C4489211002B0E4A2139
:100B20005C4950A3830323418D002C0CE4602B43CC
:100B3000E22062241B002D0865E034E141002E0B09
:100B400084202C43E2204202002F10C6213C495150
:100B500090A22045418A8214013014C9255C67683F
:100B600062444662C6BF99901199189A01310CC728
:100B7000295C4768A468FFC9013217C9255C87460C
:100B80006462C66642666C6A6C6A4A4CD5C14101B1
:100B90003319C9255C87466462C66642664C685252
:100BA0006E42C6CD84C84C09003419C9255C2F4E4D
:100BB0006C8A51C44CC848CC48CC44D0C481D4D8E9
:100BC00054013517C9255CE320E22430A14DCCDC6B
:100BD000D8848C9B09919912003618C9255CA764AA
:100BE000858C8DC4D8C408C51A6F266426468466D1
:100BF000003712C9255CE141D994989C989CD8AAE9
:100C0000B18D003818C9255C674846428AAAE84277
:100C1000C4C824E4A88AAA46860600391AC9255CF5
:100C2000674864624662C69B89099289B109191BAB
:100C30008991911A003A0F24253443E220424CE274
:100C4000204202003B1084653343E220424CE22004
:100C500062241B003C0C4A215C518C8833420E05F7
:100C60003D0CC9A45CE1013DCCC101013E0C4A210F
:100C70005C419067449C09023F14C92154A744E495
:100C8000C66642664CF7106254644200402ACF2187
:100C900084EB6C4C463244A644424409898C088952
:100CA0008C08858C88841A110925132222134492FA
:100CB000316362074100411ECE1D742F5A76963271
:100CC00062324430662E662C6AEA40286C286E44F4
:100CD0006E82AA004222CC2174E160668664686458
:100CE0006864686466E62068C9D4C4D4C4D4C4D433
:100CF000C4D0C4810C004318CC2174A92484C598A5
:100D0000C45821CB0D23E622C66268A46A0044239E
:100D1000CE2184E1606A88666C646C646E626E6287
:100D20006E626E626E626E626C646C6488E460080F
:100D3000004523CB216CE1806268624A622624620E
:100D400026246244E868446826682624622C624AA5
:100D500062E8E000461FCB216CE1806268624A6273
:100D600026246226246244E868446826682668705F
:100D70009D15004720CD217CA9248684644C644CB9
:100D8000623062306274D541D8C8D4C8D40C0955D9
:100D90004904004822CE2184A1A8626C646C646C72
:100DA000646C646CE4A0646C646C646C646C646C0F
:100DB000646CA2A800490BC5254CA16264FF8B029C
:100DC0004A15CA1D64AB6C6E9FC84C904C904C0881
:100DD0008D880C11014B20CE2184A1A6644A68485D
:100DE0006A466C446E42D0F06E826C846A86688873
:100DF000668AA2C6004C11CA2164A16C6E7F1531AF
:100E00001531243173604D33D1219CC1AC848CA643
:100E10008A26622862266426622664266226642464
:100E2000642666226426662264268666266866260E
:100E30006866642868A226A6004E25CE218481AA71
:100E4000826A862A882AA828054D500849500C45F0
:100E500050505114511451D8CC98485908004F188B
:100E6000CE2184C98C84666C646C62D00F27C64620
:100E7000C66648C88C00501ACC2174E1406886646C
:100E8000886288628862886286E42068728775005A
:100E900051204E2283C98C84666C646C62D02F68AA
:100EA0002646464466246628CA8C8527224B47007E
:100EB0005223CD2184E1806688646A646A646A642E
:100EC00068E6206A6668666886666866686668C2FC
:100ED0006802005319CA2164872264C590C454046F
:100EE00099D595995559D5C9444809005413CB2132
:100EF0006CE1C064CD8CCC8CCC4CD0E07E570355DB
:100F000022CE2184A1A8626C642E662E662E662EE7
:100F1000662E662E662E662E662E662E6848CE08D3
:100F200000561FCF1D74C1A8826C662E882A6C2AB9
:100F30006C2A6E2670267222742276783A3C0E0055
:100F4000572FD41D9CC1C2A482866866682A8886F1
:100F5000266C86266C86268C228222702264227061
:100F6000226422908674687468362C382C0C0058E1
:100F70001DCF218CC3A486688A466E44D09498B451
:100F8000D450844C686A88668CA2C8005917CD2159
:100F90007CC186824A662A88466A268C22B0727490
:100FA0000F6F005A1ACC216CE14158D944184514EE
:100FB0001DE1201DAB08B288B1B28383005B0A0437
:100FC000A633C144FF4F085C14C8214C414C4E4C21
:100FD0004E4C4E4C4E4C4E4C4E4C005D0A04A233CF
:100FE0008144FF4F0C5E0F08A14D474C8A88464450
:100FF0000B2122015F0849604BE10101600985A4D2
:101000003E4166910061142A215CE3646642688C6B
:101010006662CDC4CCC4089301621ACC1D6481728F
:101020002F886846A626A626A626A626A6266846B1
:10103000246A006310292154A764C4A86CAB8819E2
:10104000191200641ACC216C8F7247142333145385
:101050001353135313531353233344140465142AA3
:10106000215C87686462C8E8E0406E2C6248A60490
:10107000006610C8213C87466257433653FBA806DA
:1010800000671FEB215B5370C4686446484648669E
:1010900064C848F220E820426A424C6248E60600F2
:1010A0006819CC216C81722F6A484886468646862C
:1010B000468646864686264A0A690BC521346364FD
:1010C0002DC97E516A10471633697B10A2FD9185A8
:1010D000850809006B18CC216C81724F4A668446E2
:1010E000C226C4AE2688466866282A0C6C0AC5212A
:1010F000348164FF17056D1A3321A481A2C286A42E
:10110000846468C9D092A125434B86960CAD2869AA
:101110006E182C216C81A28684646864686468649B
:101120006864686468A2A4006F102B2164A76866D5
:1011300062CA571333433500701CAC1D6361848849
:1011400066646A626A626A626A626A826664826805
:1011500072611D00711AAC216387446486626A6201
:101160006A626A626A626A6486886272C302721024
:1011700028214C814284426244626A4735007314DC
:10118000292154852244466228C2E8CAAA4822A2DC
:1011900004007412A72144272C4A68C664684F22B1
:1011A0004642280075172C216CA184646864686429
:1011B00068646864686468844D050176152A1D4C6E
:1011C000A16462286428662468248A8C4E50080032
:1011D000771E301D7CA1A26462662864662866843E
:1011E000246884248A848C844E48504808007814EB
:1011F0002B2164C1828D0C8554DD5C95048D0C051A
:101200008501791DAB2163A166622A642A6626687E
:10121000266A226C226E70324A266A226E0E007A8C
:101220000F292154E180A686889B22A203027B0F0E
:1012300005A233474464278A64467623247C07C288
:10124000315CE1077D1005A233414866641B211122
:10125000913D51037E0C6A246565C541C4C80800F0
:101260000000000000002100240027002A002D00BB
:101270003000330001010000040107010A010000F1
:101280002200250028002B002E003100340002012E
:101290000000050108010B010000200023002600CA
:1012A00029002C002F00320000010000030106017C
:1012B00009010505050507050808080802020202DC
:1012C0000A0A0808040404040101010101010101E2
:1012D0000303030303030303040707070C0C0C0CAD
:1012E0000C0C0C0C02020202060606060606060696
:1012F0000B0B0B0B0B0B0B0B010210202008081023
:101300002040102040800201020108040201010275
:10131000040810204080804020100804020180044E
:1013200002018040201008040201080402010102A9
:1013300004081020408001020408102040800000B2
:101340000A0B02090C0D0E0807030401000000003F
:10135000000000000000000000000000000000008D
:10136000000000000000000000001211100000004A
:10137000000000000000000000000000000000006D
:10138000000000001F1C1F1E1F1E1F1F1E1F1E1FF0
:10139000BF0003020404040505080F00FD0AFD0B4D
:1013A000FF0189032609E7200500C8312108A10CA7
:1013B000310E89002208347A31225300230E861917
:1013C00071A29661895A86256A012411B5FAB0B2D4
:1013D000A5A24449B62551A254B6082513A6097101
:1013E0003225524A491AA649942452A225002612AF
:1013F000A709B1C4288BB224AD4452528BB26C11F0
:101400002708437B712C2500280CC3FBB092288948
:101410007A8BB200290CC3FA30B2288B7A899208F1
:101420002A0C562971A24C1A262D4A002B0B77192B
:10143000F1E2DA3064710D2C0843EA702C25002D9E
:10144000061649310E2E07220B3186002F0EC6F9E3
:10145000708B699886699886690A300DA609B1B4BF
:1014600028097D4CA24C023109A30AB19225EA0752
:10147000320CA60971862414D3B0D7613310A609A3
:101480007186244CC36C4E53311912003410A609D6
:1014900031432DC992A89225C39856003510A6094C
:1014A0003106254D87288BD3548B2600360EA6098E
:1014B000B1A630AD2C9A684C8604370CA60931AE23
:1014C000C5344CC3B406380FA609718624342643AC
:1014D000123A264302390EA609718624745396B433
:1014E000184D003A08620B318670083B0A83EA7097
:1014F000EC80A294003C09A50A31B38E69073D082F
:10150000462931EEE8303E0AA50A31D28E5947000D
:101510003F0EA60971862414D3B01D4C330040122F
:10152000A609B1A64C4A946489944889A4251E0250
:10153000410EA609B1442D6A09C561108D01420E04
:10154000A609310625340E4BE8382C00430CA609B9
:10155000B1A64CED398B1600440DA6093186284BF7
:1015600042BF254304450CA609310E697588D2D6C1
:1015700061460CA60A310E697588D2AE00470EA6E8
:1015800009B1A64C6D1BC5248B8600480BA60931FA
:1015900042C761103D06490AA50A310629ECA74158
:1015A0004A0CA609F1C6B4972CC9A2094B0FA6098B
:1015B00031425B1255B22DAA25A1184C09A609315A
:1015C000D2FE3A0C4D10A7093152755B2A4A458A62
:1015D000A448B5064E10A609314271532225921235
:1015E00029D146314F0CA609718624F4C7644800FE
:1015F000500CA609310625741C96B4155116B7F97E
:101600007086284CC2244CC2244CC2244A6AD29010
:1016100003025210A609310625340E4B544BB22456
:101620001403530EA6097186245463732A264302B9
:10163000540AA709310E59DCDF00550BA6093142C7
:10164000FF980C09005611A709315263944559546B
:101650004CC2249433005713A709315253244552E6
:10166000A454946E5116650900580FA609314231F1
:1016700089DA442D6A09C500590FA70931D2248B94
:10168000B24A98A47137005A0CA60931AE6135AC44
:1016900086E9305B0AC4FA3006AD7F1B025C0EC6D9
:1016A000F930D2388DD3388DD3380D5D0AC4FA3075
:1016B00086AC7F1B045E0A4769F1D224ABA4015FAC
:1016C000061609310E6008437B3114290B610D7633
:1016D000097186384D8651539600620DA60931D2A4
:1016E0009645138D9BB200630C7609718624541BBA
:1016F000932101640CA609715B166D745396006505
:101700000D76097186241487418D8704660CA6091D
:10171000F1A6D66CD0D26E006712A6D970162DC96C
:10172000922C9AE22109C5644800680BA60931D2BF
:101730009645133D06690BA50AB1C21C117B1A041C
:101740006A0DD5D930EBC0D8A3A6250B006B0FA628
:101750000931D2462D89A22DAA2561006C09A50A5E
:1017600071C4FE34086D1077093116258AA4488AA1
:10177000A4488AA4026E0A7609319245133D066F89
:101780000C7609718624F4980C0900700EA6D930E5
:101790009245138D9BB2A45500710CA6D970166D9D
:1017A000745396B401720B76093194454AD28E0077
:1017B000730D76097186249487584C8604740C96B0
:1017C00009B1D26CD0D24E9902750976093142DF47
:1017D0009425760C760931426312B5891200770F91
:1017E00077093152299222A962CAA22C01780D767A
:1017F0000931423189322D4A42317912A6D930421B
:1018000031C992284BB2244CA3240C017A097609E1
:10181000318EBD0E037B0CC5FAF0A4B04953C356FC
:10182000017C06C1FC303E7D0CC5F930D4B0559327
:10183000C2260D7E0936797124C5A400A009360997
:101840003142711802A108A1DC30946108A21096FF
:10185000F9709321C9A62E591225431402A310A68C
:1018600009B1A62CC992341CB2340C8721A40C6691
:101870002931C264883A0D4918A511A70931D2242B
:101880008BB24A3688E120C63500A608C1FC300676
:101890006910A710D4DA709448CC94C89468A194C5
:1018A0002800A807249A312229A917A808B1862C54
:1018B0004C224B9428A1122A51224949980D11001B
:1018C000AA0C753A71D664D092211D04AB0C56292E
:1018D000B12A511265511605AC07462931AE0DAD3E
:1018E00007144A318600AE17A808B1862C4C9249DD
:1018F0008912254A944929295152CC8608AF0616E7
:1019000099310EB00A446A7194484A1400B10E9796
:1019100009F1E2DA3064711D1B8600B20B754A7161
:10192000962CCCDA0601B30C754A71962C8C542D8A
:101930005900B408437BB12A2500B50BA6D9304223
:101940008FD362AD02B614A6097186299112294976
:10195000962CC9922CC9922C09B707224B318600CC
:10196000B80843DA70226901B909734AB19225EACD
:1019700000BA0B753A7196CC96CC8300BB0D5629F4
:1019800031A22CCAA2244AA208BC16C7F97052314F
:10199000C9A22CAA2571922552524A9A863401BDB9
:1019A00015C7F9705231C9A22CAA25F1262561125A
:1019B00029513C04BE15C7F970C4A86352D29434AF
:1019C000C9122929254D439A00BF0DA6D9F0D21C72
:1019D000EC1A8AC99000C00FC60971621D13B5A820
:1019E000251C06D118C10FC60931331D13B5A82512
:1019F0001C06D118C210C609B1B42887442D6A0943
:101A000087413406C310C609B12A890E895AD412F7
:101A10000E83680CC410C60971A27648D4A29670D1
:101A200018446300C510C609B1B4A84DD4A296707D
:101A300018446300C612A808F1064D4DD2244DA6E5
:101A4000E2104659DB10C70ED6D9B0A64CED398B43
:101A5000C6389300C80FC60971621D1986B43A448E
:101A6000697518C90FC60931331D1986B43A44691E
:101A70007518CA0FC609B1B428070E697588D2EA6D
:101A800030CB0FC60971A276E090568728AD0E03C1
:101A9000CC0CC50A71527990C23E0D02CD0DC50A1B
:101AA000F1221D18A4B04F8300CE0CC50AB1A4EAE0
:101AB00020857D1A04CF0DC50A71A2244A0729EC9E
:101AC000D320D014A7087186AC1426E1202561121A
:101AD000266192454304D112C60971243B106E4A17
:101AE000A444522225DA2806D20EC60971621D1AB4
:101AF00092D08FC99000D30EC60931331D1A92D0EF
:101B00008FC99000D40FC609B1B428478624F46366
:101B1000322400D50FC609B12A898E0C49E8C76462
:101B20004800D60EC60971A2766448423F26430299
:101B3000D70D661931C224CA442D4AC200D815C631
:101B4000F97093A594645322254AA4445B1225C9D5
:101B50009202D90DC60971621D09FD31191200DA10
:101B60000DC60931331D09FD31191200DB0DC609FF
:101B7000B1B42807427F4C8604DC0DC60971A276F9
:101B800020F4C7644800DD11C70971431D4A932C36
:101B9000CA2A6192C66D00DE0EA60931D274504287
:101BA000C761495300DF0FA60971A62CC992A8A4EA
:101BB000842E9105E010B609B1D2388786384D865B
:101BC00051539600E110B609F1D230C786384D86E0
:101BD00051539600E210A609B1B4284786384D86C5
:101BE00051539600E310A609B12A898E0C719A0C04
:101BF000A3A62C01E40FA60971A2766488D3641809
:101C0000356509E510B609B1B428D3A1214E936119
:101C1000D49425E6107709311631CAA26418A22C93
:101C20000A9501E70EA6D9708624541B93218B33A5
:101C30000DE810B609B1D2388786241487418D8704
:101C400004E910B609F1D230C786241487418D8784
:101C500004EA10A609B1B4284786241487418D8769
:101C600004EB10A60971A2766448427118D4784832
:101C700000EC0CB50A71C23447C49E0601ED0CB5E8
:101C80000AB1C22C87C49E0601EE0BA50A71A43AC4
:101C900020F63408EF0CA50A31A224CA01B1A741ED
:101CA000F00FA60931A24C8BC229131D932101F11B
:101CB0000CA60971243B902C9AE831F20FB609B1B9
:101CC000D238878624F4980C0900F30FB609F1D2B4
:101CD00030C78624F4980C0900F40FA609B1B42883
:101CE000478624F4980C0900F50FA609B12A898EBD
:101CF0000C49E831191200F60EA60971A276644863
:101D0000428FC99000F70E9709F1D235C78621C7D7
:101D1000D23503F81196F9709321C9A644899468C5
:101D20004B862405F90CB609B1D2384742DF942519
:101D3000FA0CB609F1D2308742DF9425FB0CA609D4
:101D4000B1B4280742DF9425FC0CA60971A27620C5
:101D5000F44D5902FD15E6D9F0D230874231C992CF
:101D6000284BB2244CA3240C01FE0FD6D930D296B6
:101D700045138D9BB2A45500FF14D6D970A27620CE
:101D800014932C89B2244BC2344AC21000000000C4
:101D9000BF0003030304030504060B00FE08FE094D
:101DA000FF015C02B8087420050066072107424362
:101DB000C7614422081D5687844500230C3D424FCD
:101DC000CA61927298A400240F5D3A57305689D0A8
:101DD0006694482D1802250E454287684289896419
:101DE00011CA4800260F45428F48129184449349F6
:101DF000444B002708A3568F841202280BD43E9729
:101E00004414D22DA600290DD43E874C1613690A1E
:101E10004944002A0C3D42574AC432B12485002B64
:101E20000B3642975074280945002C08A33A8F843A
:101E300012022D07154AC761002E06124307012F13
:101E40000E553E674C4926928964B22000300B45FE
:101E5000428F48C217C904003108444297E4A407DE
:101E6000320A454207454D96ED30330C4542074551
:101E70004D3294512C00340E4542974C348A442400
:101E800091924C02350C454207851224CA2816004F
:101E9000360B454297368A84453201370A4542C798
:101EA000619618D304380E4542CF4442914C242CFD
:101EB000920900390C4542CF44C222A18994003ACC
:101EC000072A430789003B09BB3A8FA28412023CD0
:101ED000083D429F48A3063D082D46C7617A183E3B
:101EE000093D4287509336003F0E45420725241393
:101EF000C9E410990400400D4542CF44249A502271
:101F0000922201410D4542574C368A442EA391003E
:101F1000420C4542074542B148582C00430A45420D
:101F20008F69A6538400440C4542C7481291F012B1
:101F30001901450A4542C76946912919460A454291
:101F4000C76946916903470A45428F69A6C22221A3
:101F5000480A45428784E520E1224909C4420745F1
:101F6000A417024A0B4542D74C1B852299004B0D02
:101F70004542876842898C281216014C08454287E1
:101F80004C9F0C4D0E4542476C72B0442411992C65
:101F9000004E0C4542876844A1489846024F0B45C5
:101FA00042CF44C217C90400500B45420745C262E4
:101FB00091A901510B553ACF44C217C95018520D7F
:101FC0004542074542B14822121601530B45428F44
:101FD0006946A28D2C0054094642C745A84F0055BA
:101FE0000A454287845F241300560D454287688B5B
:101FF000242299C94200570F4542474C2522891C8B
:102000002849910800580E45428768121A0945A3CD
:10201000C84800590C4642876C149284863A015A8B
:102020000B454287494D2413890C5B08D43E8749F0
:102030003F115C0E553E4750269409654299300089
:102040005D08D43E07493F195E081D56576CA20033
:102050005F07153EC761006008A3568744240A61E4
:102060000A3542CF5062A14808620B4542874C4670
:102070009170B100630935428F69A61421640A4545
:10208000429F8A858B8400650B3542CF44729089CC
:102090002204660C4542D744121155649A00670A1F
:1020A000453A8F85E536B200680A4542874C46912D
:1020B000F022690ACC428F483AD285006A0B5C3A1A
:1020C00097EA48A74905006B0D4542874C851219D0
:1020D000512414016C08C442C7485F086D0D354295
:1020E00007C5129144241149026E0935420745C2C1
:1020F0008B006F0A3542CF44C2453201700B453A1E
:102100000745C2C5229301710A453A8F858B84A683
:1021100000720A3542474512916902730935428FB0
:102120008D44B300740B4542574C549169090D75A9
:102130000935428784170901760C354287681419DE
:10214000CD642100770E3542474C1291442CA348B0
:102150000400780B35428784A228915004790F45FA
:102160003A876814914466C248D208007A09354219
:102170008765A434317B0C553ED744A62413CA147A
:10218000077C07523FC783017D0D553E8750A63817
:102190009AC89464007E081D564FE81401A00825D3
:1021A0003E474C7620A107423B07E930A211553A41
:1021B0005F3064894822928824440B4600A30D4571
:1021C00042D74412119164A10301A4092D4687E46A
:1021D000927211A50E4642876C14928468329A500E
:1021E00004A608523FC7217808A70F553A8F291235
:1021F000A38448115A246401A807155A878422A988
:10220000104E3E972C148948484C1249524C04AA4F
:1022100009BC46C7EC303C04AB0A25464F48145174
:102220000905AC082546C761A600AD07944AC72139
:1022300000AE124E3E972C1489A854221395882480
:10224000141301AF07155AC76100B00A2552CF44D5
:1022500042914C00B10C453E57307418054387013C
:10226000B2092D520725A4A900B3092D52075132F6
:10227000B400B4089C5697440900B50B453A8784CE
:10228000CB61329301B6104542CF6112A14424A123
:102290004828128A04B706124B0701B808A33A4F20
:1022A000483401B907AB524F4503BA0B3D46CF4402
:1022B00042918C0F03BB0B25464728A21212450002
:1022C000BC10553A4F4C188A24C9222932112D02CC
:1022D000BD10553A4F4C188A24C92229C3586C00A6
:1022E000BE10553A8750248AAC455264225A0400E5
:1022F000BF0C453A974C0E11A9892204C00E4D42DD
:102300008750181B452297D14800C10E4D429F4867
:10231000161B452297D14800C20E4D429728228AAB
:102320008D2291CB6824C30D4D428FB6D82812B9A7
:102330008C4602C40F4D424F5224161B452297D1A2
:102340004800C50E4D42CF4465348A442EA3910007
:10235000C60E45420F45428A9822A1484432C70B17
:10236000553A8F69A65384A404C80C4D428F50720D
:102370009A51642203C90B4D4297D2694691890C48
:10238000CA0D4D4297287210CD28329101CB0D4DC8
:10239000424F5224729A51642203CC0ACC42874C99
:1023A0004211E942CD0ACC4297444211E942CE0A99
:1023B000CC428F246211E942CF0BCC4247240B451B
:1023C000A40B01D00E4542C74812911C242C911138
:1023D00000D10C4D428F96D8887221CD02D20C4D7F
:1023E000428F503491F0229900D30C4D429F4834D3
:1023F00091F0229900D40D4D429728229948789166
:102400004C00D50C4D428FA6898417C90400D60D07
:102410004D424F52243491F0229900D70C35424757
:102420006C22194D24B300D80C45428F6534B18C11
:10243000261600D90B4D428F5022E18B6402DA0B35
:102440004D4297A6092F920900DB0C4D4297283286
:102450009BF0229900DC0C4D424F52246DC28B64DC
:1024600002DD0D4E429F926C149284869A00DE0D1E
:102470004542874C4691502C321900DF0D4542CF22
:1024800044428950245C2200E00D4D428F500E18CA
:102490004A2C140901E10D4D429F480E184A2C1494
:1024A0000901E20D4D429728221E4A2C140901E32E
:1024B0000C4D428F76C05062A14808E40E4D424F49
:1024C00052240E184A2C140901E50D4D42974A4832
:1024D000349458281202E60B354287A41232452A5A
:1024E00002E70B453A8F69A614212901E80E4D42F7
:1024F0008F500E98480E32518400E90E4D429F488D
:102500000E98480E32518400EA0E4D429728229EC2
:10251000480E32518400EB0F4D424F52240E984822
:102520000E32518400EC0ACC42874C3AD28500ED41
:102530000ACC4297443AD28500EE0ACC428F24223C
:102540001CE942EF0ACC424724EB481702F00F4542
:10255000428724248A88261216C90400F10A4D42B3
:102560008F668A841701F20D4D4287500E9948B844
:10257000482600F30D4D429F480E9848B848260063
:10258000F40D4D429728229E48B8482600F50C4D80
:10259000428F76C044C2453201F60E4D424F52245E
:1025A0000E9848B8482600F70D453E57300E38CCF7
:1025B00001C11000F80D453E9F6422395C241319B7
:1025C00000F90A4D428F502CE14542FA0A4D429FD4
:1025D000482CE14542FB0B4D4297282295F02221E1
:1025E000FC0B4D424F52242CE14542FD105D3A9FB9
:1025F000482C1A4524919930923402FE0D553A87A1
:102600004C469170B1C86400FF115D3A4F52242CC2
:102610001A452491993092340200000000BF000353
:10262000030304030404080BFFFE06FE07FF013D3D
:1026300002910862200500A6032107B2A2E310124E
:1026400022079BAE23A2122310459E272912A924FC
:10265000452295A4480400240C4D9E2B662AD128BF
:10266000B61000250C3DA2631489D46295A40126FE
:102670000AB6A16B24955D4405270619AF630028AF
:1026800009C39E2B12D12916290AC39E23169268CC
:1026900049022A0924AE2B429184022B0A2DA62B33
:1026A000182A0543002C079B9A4792042D060DAE6D
:1026B000A3002E068AA243002F0CC49E2F29168A3F
:1026C00085623100300A3DA26722E14532013109BD
:1026D0003EA24B44D4C90032093DA267A226D27261
:1026E000330C3DA267A2261952241300340C3EA2DB
:1026F0004F368A68B1092500350A3DA2E346511BD1
:102700005900360D3DA26722A1512414C904003797
:102710000C3DA2E32213C944321100380D3DA267DB
:1027200022A14826128A6402390D3DA26722A148DF
:102730006814C904003A06A2A243283B09339A4709
:102740000E9024013C082CA64BA2A6003D061CAA14
:1027500083483E08ACA643A6A2043F0A35A26712EE
:10276000D20E1101400D469E67248A8424F9A93AAD
:1027700002410CB7A187388CC44A12C902420CB678
:10278000A1A3249190242A1700430A35A2C74253DB
:10279000914C00440AB6A1A324D1970B00450BB677
:1027A000A1C3222409258700460BB6A1C322240910
:1027B000652400470A35A26722A15D2404480DB7AD
:1027C000A16332512A494412C902490834A2832222
:1027D000D2424A0AB6A18B2694E834024B0DB7A127
:1027E000632292C486348984224C09B6A18326D4FC
:1027F00072084D0BB6A14316D1A59232494E0FB7C0
:10280000A163B2129A842422896414014F0A35A26A
:102810006722E1229900500BB6A1A324D1429291E4
:1028200000510A3D9E6722E122190A520DB7A1A369
:102830002611494434898422530935A2C7542359A7
:1028400000540BB6A1E3220909D52800550EB7A103
:1028500063325192882422896C04560CB7A16332EA
:10286000518B04576300570FB7A1431291648A2418
:10287000D586911000580C36A24324A10965149105
:1028800000590DB7A16324118988522105005A0807
:1028900035A2E322D2725B08C39EA3A297015C0C0F
:1028A000449E23168C0563C158005D08C39E63A235
:1028B00097025E071DB22B36515F060E9AC3006069
:1028C0000612BB2314610A2EA267241151540C6214
:1028D0000BBEA16328244974B900630B2DA26722A3
:1028E000A149241300640A3EA26B28A2E8530165A3
:1028F000092DA26722390809660A3DA26B22AAC8DF
:10290000940A670B3E9A4742D113514202680ABEAD
:10291000A163282449F40369093EA24B0E216A32BF
:102920006A094C9A4B48D2A9026B0CBFA163AA2238
:10293000A20D6992016C083EA283A827036D08AE20
:10294000A1A354C93F6E09AEA1432292E8076F0AC2
:102950002DA2672261914C00700BBE99A324D10B6C
:10296000494602710A3E9A4742D1135146720B2ED4
:10297000A243B21211CA4800730A2EA28732241E43
:102980002200740C3EA247282B0955441300750DF4
:10299000AFA163229288242289AC00760AAEA1639B
:1029A000A269360C01770DAFA143129164AAD1221E
:1029B0002100780B2EA26322A1C9289201790EBFB3
:1029C0009963325192C822C1A16C087A082DA2C322
:1029D0002252397B0BC49E4B2292C8446A027C0669
:1029E000399FE3007D0C449E43269249442A2200ED
:1029F0007E0715AE470B00A00500A603A107BA9AF3
:102A0000437418A20C459E2B18330D49C11000A326
:102A10000D3EA26B2489C56A41910500A40C2DA628
:102A20002316194542935800A50D3EA2432409459B
:102A30004C22938C02A606499B8342A70E459E8793
:102A4000128A88729284221400A8068BB62312A9D7
:102A50000F3EA24B168A4454421249524C04AA0813
:102A6000ACAA63380912AB0AAFA14BA237894C223A
:102A7000AC071DAAA39800AD060DAEA300AE0E3F95
:102A8000A26B9612992849728B8D00AF060CB68303
:102A900000B0091CB247128A4800B10A35A22B18AF
:102AA0002AC50105B207A3AE679232B308A3AE638D
:102AB000129B00B40612B74702B50FBF996322926A
:102AC00088242289C8128E02B610469EC7922749D2
:102AD0002C128BC422218900B7068AAE4300B807A6
:102AE0009B9A273601B907A3AE439432BA09ACAA20
:102AF00047128A4809BB0BAFA1432293C8247A022C
:102B0000BC0FBFA1431C0B2551621151841A01BD9A
:102B10000EBFA1431C0B255144916CD101BE0FBFC8
:102B2000A1631A4B0949D222A2083502BF0C3D9A73
:102B30004B0E918994221300C00FCFA12B0E880356
:102B400089C348AC24912CC10ECFA12F1A871287BC
:102B50009158492259C20FCFA12F1A89C388C3485F
:102B6000AC24912CC30FCFA14B124A8711879158E7
:102B7000492259C40EC7A12B1287118791584922A7
:102B800059C50FCFA14B180A0A89C348AC24912C10
:102B9000C60DB7A1C73489289124920901C70C45F5
:102BA0009AC74253910C432200C80ECEA12B1C871A
:102BB00058441192507208C90ECEA12F18075944DB
:102BC0001192507208CA0FCEA12B1889432CA2086B
:102BD00049283904CB0EC6A1271D6211454842C9B8
:102BE0002100CC0A4CA22718A588B410CD094CA20C
:102BF0002B9922D242CE0B4CA227148952445A0858
:102C0000CF0A44A22312A588B410D00DB6A1A324E4
:102C1000B1444411C90500D113CFA14B124A074D4D
:102C200026A2D024549248261200D20D4DA2271A73
:102C3000874C245C241300D30D4DA22B16074D2482
:102C40005C241300D40E4DA22B16890326122E925B
:102C50000900D50D4DA247290E9848B8482600D640
:102C60000C45A2271D309170914C00D70A2DA62348
:102C700016494B490BD80EB7A16B12512A49441281
:102C8000496404D912CFA12B0E88C3261325894885
:102C90002292C84600DA11CFA1331A874D264A1274
:102CA000914424918D00DB12CFA12F1A8983261322
:102CB0002589482292C84600DC11C7A12B12074D76
:102CC000264A12914424918D00DD0ECFA1371D3488
:102CD00092884444A99002DE0BB6A163489268A191
:102CE000CC00DF0DB7A16B2689955444150900E08F
:102CF0000D46A22B1C078D42228A8A01E10D46A2B5
:102D00002F18878D42228A8A01E20E46A22B18894B
:102D10008346211145C500E30E46A2479214078D54
:102D200042228A8A01E40C3EA2271D340A89282AFD
:102D300006E50E4EA24B168AC941A39088A262E610
:102D40000CAEA1473291442C22C900E70D3D9A6791
:102D500022A14924C3900800E80C45A2271A874CF9
:102D600024072101E90C45A22B16074D2407210158
:102D7000EA0D45A22B1689032692839000EB0B3DAA
:102D8000A2271D30911C8404EC0A46A22B1C070DBF
:102D90003519ED0A46A22F18870D3519EE0B46A2FC
:102DA0002B188983869A0CEF093EA2271D34D46420
:102DB000F00E45A243121245441616C90400F11143
:102DC000C7A14B124A07496412914424114906F2E3
:102DD0000D45A2271A874C242C920900F30D45A219
:102DE0002B16074D242C920900F40E45A22B1689B0
:102DF00003261216C90400F50D45A247290E98486E
:102E000058241300F60C3DA2271D3091B04826002F
:102E1000F70A2DA62B0EA8034200F80D3D9E333273
:102E2000911C2492491000F910C7A12B0E88C326CB
:102E30002289482292C80AFA0FC7A12F1A074E44C6
:102E4000129144249115FB10C7A12F1A89832622C1
:102E500089482292C80AFC0FBFA12B12074D4412C9
:102E60009144249115FD11D799331A874D264A12A2
:102E700059243894D100FE0DCE9963282449F44298
:102E8000929100FF11CF992B12074D264A12592417
:102E90003894D10000000000484511241FBECFEF38
:102EA000D1E2DEBFCDBF00E00CBF2DE0AEE0B6E06A
:102EB00001C01D92A733B207E1F716E0A0E0B2E02F
:102EC000E2ECFEE900E00BBF02C007900D92AE30CD
:102ED000B107D9F717E1CDE4D7E100E006C02197AB
:102EE0000109802FFE010E94154DCC34D10780E0EE
:102EF0000807A9F70E943A420C945F4F0C94000017
:102F0000CF92DF92EF92FF920F931F93CF93DF93B5
:102F10006C01EB017B01E40EF51E00E010E0CE1524
:102F2000DF0561F06991D601ED91FC910190F0818E
:102F3000E02DC6011995080F191FF1CFC801DF91C7
:102F4000CF911F910F91FF90EF90DF90CF90089558
:102F5000089580E090E008950F931F93CF93DF933F
:102F6000EC018C010C5F1F4FFC01E958FF4F0190F1
:102F7000F081E02DC80119958E3F2FEF920770F474
:102F8000FE01E658FF4FC758DF4F9C014081688122
:102F9000C8010E94AD3B9881890F888381E090E051
:102FA000DF91CF911F910F9108957F928F929F9201
:102FB000AF92BF92CF92DF92EF92FF920F931F9347
:102FC000CF93DF93CDB7DEB7C854D1090FB6F894CD
:102FD000DEBF0FBECDBF0E94512800913F06109169
:102FE00040062091410630914206DC01CB01801B56
:102FF000910BA20BB30B0297A105B10560F00E94E3
:10300000512860933F067093400680934106909349
:1030100042060E94474180910A0790910B07873032
:10302000910509F4DAC408F065C08330910509F40C
:103030006DC338F48130910509F491C208F474C06D
:1030400025C38530910509F421C408F073C466E4F2
:1030500074E0CE0101960E94F22B60910202709101
:1030600003028091040290910502AE014F5F5F4F11
:103070000E944234CE0101960E94E52B0E94B74186
:1030800066E474E0CE0101960E94F22B6091020288
:103090007091030280910402909105029E012F5FBE
:1030A0003F4F690108E7E02EF12C01E010E020E03D
:1030B00030E040E85FE30E9428356093020270939D
:1030C00003028093040290930502C6010E94E52B3F
:1030D0008091020290910302A0910402B091050236
:1030E00080933A0790933B07A0933C07B0933D072A
:1030F0000C94B6248B30910509F49AC638F48930C3
:10310000910509F431C508F4ADC4EEC582339105CB
:1031100009F44CC78333910511F40C94CF210C971B
:1031200011F00C94D8232CC78091170290911802AB
:10313000892B09F4ADC1CE01C1960E94C02D0E9419
:1031400051286093000770930107809302079093C2
:1031500003078BEA98E00E94343D02E000932009C7
:103160008CE0F82EF092210980910A0790910B07CC
:1031700024E1289FB001299F700D11246C5C7D4FC4
:1031800087EA98E00E941B2C82E092E00E94F23DC8
:1031900088E2809320098FE0809321096DEF73E02E
:1031A000CE018B960E94F22B62E275E0CE018596ED
:1031B0000E94F22B20E030E04AE754E460910A02DA
:1031C00070910B0280910C0290910D020E946C4B49
:1031D0004B015C01BE01655D7F4FCE0101960E94EF
:1031E000EA2BB501A401CE0101960E940B34BE0169
:1031F0006B5D7F4F0E94D428BC01CE014F960E9488
:10320000EA2BCE0101960E94E52B1DE210932009C6
:10321000F0922109CE014F960E94A63E65E074E02F
:10322000CE0149960E94F22B20E030E04AE754E4B8
:103230006091060270910702809108029091090244
:103240000E946C4B6B017C01BE01675E7F4FCE011B
:1032500001960E94EA2BB701A601CE0101960E94B9
:103260000B34BE016B5D7F4F0E94D428BC01CE01A0
:103270004F960E94FA28CE0101960E94E52B1093EA
:10328000200986E180932109CE014F960E94A63E37
:103290006DE074E0CE0143960E94F22B64E174E08D
:1032A000CE010D960E94F22BC0900202D090030234
:1032B000E0900402F0900502BE016D5E7F4FCE01EA
:1032C00001960E94EA2BB701A601CE0101960E9449
:1032D0000B34BE01635F7F4F0E94D428BC01CE0136
:1032E0004F960E94FA28CE0101960E94E52B10937A
:1032F00020098FE180932109CE014F960E94A63EBE
:103300006BE074E0CE0107960E94F22B6EA970E08C
:10331000CE018D5B9F4F0E94EB416DA970E0CE0105
:10332000CD960E94EB416CA970E0CE0101960E94FF
:10333000EB41BE016F5F7F4FCE01C7960E94EA2B23
:10334000BE01695F7F4FCE01C7960E94D428BE019F
:10335000635C7F4F0E94D428BE01695F7F4F0E944B
:10336000D428BE016D5B7F4F0E94D428BC01CE01E2
:103370004F960E94FA28CE01C7960E94E52BCE01F7
:1033800001960E94E52BCE01CD960E94E52BCE0141
:103390008D5B9F4F0E94E52B87E38093200910E40B
:1033A00010932109CE014F960E94A63E80911602ED
:1033B00081110AC0009320091093210969E174E08A
:1033C00087EA98E00E941B2C80913D0690913E0672
:1033D00018161906BCF582E08093200985E38093D6
:1033E000210963E274E0CE0101960E94F22B609104
:1033F0003D0670913E06CE01CD960E94EB41BE0186
:103400006F5F7F4FCE01C7960E94EA2BBE01635CBF
:103410007F4FCE01C7960E94D428BC01CE014F96A3
:103420000E94FA28CE01C7960E94E52BCE01CD96C8
:103430000E94E52BCE014F960E94A63ECE0101963A
:103440000E94E52B0E94B13D80E99DE10E94F23D82
:103450001092180210921702CE0107960E94E52BD7
:10346000CE010D960E94E52BCE0143960E94E52BDE
:10347000CE0149960E94E52BCE014F960E94E52B86
:10348000CE0185960E94E52BCE018B960E94E52BFE
:1034900080910407909105071816190634F480915D
:1034A0000A0790910B07019678C583E20E941B27BB
:1034B000892B11F00C94F2230E94512800910607E9
:1034C000109107072091080730910907DC01CB0113
:1034D000801B910BA20BB30B8B3F9105A105B1058E
:1034E00010F40C94F2230E94512860930607709305
:1034F0000707809308079093090782E390E0909371
:103500000B0780930A0781E090E090931802809364
:103510001702CE0101960E94C02D86E0FE01319671
:10352000ADEEB7E001900D928A95E1F78DEE97E050
:103530000E94432EAB01BC01415F5F4F6F4F7F4F35
:10354000CE0101960E94A52E86E0FE013196A7EEDF
:10355000B7E001900D928A95E1F70C9402268091D4
:10356000170290911802892B09F45AC08BEA98E04F
:103570000E94343D12E0109320098CE080932109D1
:1035800080910A0790910B0724E1289FB001299FA1
:10359000700D11246C5C7D4F87EA98E00E941B2C13
:1035A00066E374E0CE0107960E94F22B60913D061F
:1035B00070913E06CE0143960E94EB41BE01695FC9
:1035C0007F4FCE010D960E94EA2BBE016D5E7F4FAC
:1035D000CE010D960E94D428BC01CE0101960E9416
:1035E000EA2BCE010D960E94E52BCE0143960E9458
:1035F000E52B1093200982E380932109CE010196E7
:103600000E94A63E0E94B13D10921802109217022D
:10361000CE0101960E94E52BCE0107960E94E52B74
:103620000E94B74183E20E941B27892B11F00C9462
:1036300002260E9451280091060710910707209149
:10364000080730910907DC01CB01801B910BA20B0D
:10365000B30B8B3F9105A105B10510F40C94022624
:103660000E9451286093060770930707809308070C
:103670009093090710923E0610923D0610923C0668
:1036800010923B0610923A060C9407240E94924135
:103690000E94B74183E20E941B27892B11F00C94F2
:1036A00002260E94512800910607109107072091D9
:1036B000080730910907DC01CB01801B910BA20B9D
:1036C000B30B8B3F9105A105B10510F40C940226B4
:1036D0000E9451286093060770930707809308079C
:1036E0009093090710923A0683EF97E00E944232C6
:1036F0004EEB5DEF6FEF7FEF83EF97E00E9481303D
:1037000083EF97E00E94B73D0C9407246FE974E0C3
:10371000CE0101960E94F22B60913D0670913E060B
:10372000072E000C880B990B0E94C549AE014F5F14
:103730005F4F0E944234CE0101960E94E52B0E9409
:10374000B7416FE974E0CE0107960E94F22B009119
:103750003D0610913E0683E20E941B27892B09F04B
:103760008EC00E945128C0900607D0900707E090B5
:103770000807F0900907DC01CB018C199D09AE09FF
:10378000BF098B3F9105A105B10510F00C940E24E3
:1037900076C00E944741C0900407D0900507C1142D
:1037A000D10441F1B801110F880B990B0E94C54952
:1037B0004B015C01B601DD0C880B990B0E94C549D9
:1037C0009B01AC01C501B4010E94084B0E94D44B7F
:1037D0006E31710514F06DE170E08B0177FF02C06E
:1037E00000E010E0F0921802E09217021092050734
:1037F00010920407BE01695F7F4FCE0101960E94BF
:10380000EA2BB801012E000C880B990B0E94C549C8
:10381000AE014F5F5F4F0E94B534CE0101960E940A
:10382000E52B83E20E941B27892B09F0B2CF0E946F
:1038300051288090060790900707A0900807B09045
:103840000907DC01CB0188199909AA09BB098B3F3B
:103850009105A105B10508F49CCF81E090E090931B
:1038600018028093170210923A060E945128609322
:103870000607709307078093080790930907109332
:103880003E0600933D06CE010796E8C06AE474E068
:10389000CE0101960E94F22B60910A0270910B02F8
:1038A00080910C0290910D02AE014F5F5F4F0E941C
:1038B0004234CE0101960E94E52B0E94B7416AE492
:1038C00074E0CE0101960E94F22B60910A02709181
:1038D0000B0280910C0290910D029E012F5F3F4FD1
:1038E00069011CEDE12E15E0F12E04E110E020E06D
:1038F00030E040E251E40E94283560930A02709360
:103900000B0280930C0290930D02C6010E94E52BDE
:1039100080910A0290910B02A0910C02B0910D02CD
:103920008093320790933307A0933407B093350701
:103930000C94B6246AE474E0CE0101960E94F22B46
:10394000609106027091070280910802909109022D
:10395000AE014F5F5F4F0E944234CE0101960E943C
:10396000E52B0E94B7416AE474E0CE0101960E9403
:10397000F22B6091060270910702809108029091EB
:1039800009029E012F5F3F4F6901BCEDEB2EB5E0B0
:10399000FB2E04E110E020E030E040E251E40E9420
:1039A0002835609306027093070280930802909373
:1039B0000902C6010E94E52B809106029091070240
:1039C000A0910802B09109028093360790933707BF
:1039D000A0933807B0933907C9C76FE974E0CE01E7
:1039E00001960E94F22B6091000270910102072E55
:1039F000000C880B990B0E94C549AE014F5F5F4FC9
:103A00000E944234CE0101960E94E52B0E94B741EC
:103A10006FE974E0CE0101960E94F22B60910002E2
:103A200070910102072E000C880B990B0E94C5496A
:103A30009E012F5F3F4F6901AEE1EA2EF12C01E0BC
:103A400010E020E030E040E85FE30E9428350E946B
:103A5000D44B7093010260930002C6010E94E52BD3
:103A60000C9402260E9492410E94B74183E20E9478
:103A70001B27892B11F00C9402260E9451280091DB
:103A80000607109107072091080730910907DC010C
:103A9000CB01801B910BA20BB30B8B3F9105A105B2
:103AA000B10510F40C9402260E9451286093060779
:103AB00070930707809308079093090781E090E0CF
:103AC000909318028093170280E090E0A4EBB2E498
:103AD0008093360690933706A0933806B093390644
:103AE000C0901202D0901302E0901402F0901502E0
:103AF00066E175E0CE0101960E94F22BA7019601C6
:103B000060E078EC8FEA97E40E946C4B0E94D44B03
:103B1000DC01CB01A7019601BE016F5F7F4F0E94C0
:103B20001E36CE0101960E94E52B01E010E083E2F3
:103B30000E941B27892B09F085C60E945128C0903E
:103B40000607D0900707E0900807F0900907DC010E
:103B5000CB018C199D09AE09BF098B3F9105A105C9
:103B6000B10508F46FC6C5C60E9492410E94B741D4
:103B700083E20E941B27892B11F00C9402260E94DD
:103B800051280091060710910707209108073091EE
:103B90000907DC01CB01801B910BA20BB30B8B3F00
:103BA0009105A105B10510F40C9402260E9451283C
:103BB000609306077093070780930807909309079F
:103BC00081E090E0909318028093170280E090E0EB
:103BD000A0E0B1E48093360690933706A0933806B0
:103BE000B0933906C0900E02D0900F02E090100200
:103BF000F090110265E275E0CE0101960E94F22B71
:103C0000A701960160E070E08AEF95E40E946C4B9A
:103C10000E94D44BDC01CB01A7019601BE016F5F6E
:103C20007F4F0E948837CE0101960E94E52B01E06C
:103C300010E083E20E941B27892B09F09AC60E949C
:103C40005128C0900607D0900707E0900807F09031
:103C50000907DC01CB018C199D09AE09BF098B3F17
:103C60009105A105B10508F484C681E090E0909328
:103C70001802809317020E945128609306077093E0
:103C80000707809308079093090720913606309123
:103C90003706409138065091390660910E027091B6
:103CA0000F0280911002909111020E94244A20E09C
:103CB00030E04AE754E40E94244A20E030E04AEF32
:103CC00055E40E946C4B60930E0270930F02809338
:103CD00010029093110260932C0770932D0780932C
:103CE0002E0790932F0742C68091170290911802D9
:103CF000892B09F47EC0CE010D960E94C02D0E9432
:103D000051286093000770930107809302079093F6
:103D100003078BEA98E00E94343D82E080932009FB
:103D20008CE08093210980910A0790910B0724E190
:103D3000289FB001299F700D11246C5C7D4F87EA8C
:103D400098E00E941B2C8DE196E20E94F23D6BE010
:103D500074E0CE0107960E94F22B698970E0CE01D3
:103D60004F960E94EB41688970E0CE0143960E9415
:103D7000EB41BE016D5E7F4FCE0149960E94EA2B5A
:103D8000BE01695F7F4FCE0149960E94D428BE01D3
:103D9000615E7F4F0E94D428BC01CE0101960E9433
:103DA000EA2BCE0149960E94E52BCE0143960E9454
:103DB000E52BCE014F960E94E52B88E280932009E7
:103DC00089E180932109CE0101960E94A63E0E94BE
:103DD000B13D80E99DE10E94F23D109218021092DF
:103DE0001702CE0101960E94E52BCE0107960E9494
:103DF000E52B0E94B74183E20E941B27892B09F023
:103E0000B8C20E945128009106071091070720911F
:103E1000080730910907DC01CB01801B910BA20B35
:103E2000B30B8B3F9105A105B10508F0F9C5A1C2FF
:103E30008091170290911802892B09F49EC08BEA99
:103E400098E00E94343D12E0109320098CE08093AA
:103E5000210980910A0790910B0724E1289FB00166
:103E6000299F700D11246C5C7D4F87EA98E00E94B9
:103E70001B2C82E092E00E94F23D1093200989E120
:103E8000809321096DE474E0CE0101960E94F22B2B
:103E9000C0900E02D0900F02E0901002F09011023C
:103EA000BE016F5F7F4FCE0107960E94EA2BB701DC
:103EB000A601CE0107960E940B340E94A63ECE01B9
:103EC00007960E94E52B1093200985E28093210933
:103ED0006AE574E0CE0101960E94E528C0901202C6
:103EE000D0901302E0901402F0901502BE016F5FB3
:103EF0007F4FCE0107960E94EA2BB701A601CE01A3
:103F000007960E940B340E94A63ECE0107960E949F
:103F1000E52B1093200981E38093210966E674E084
:103F2000CE0101960E94E528C0903206D09033065B
:103F3000E0903406F0903506BE016F5F7F4FCE01F2
:103F400007960E94EA2BB701A601CE0107960E94B0
:103F50000B340E94A63ECE0107960E94E52B0E94DC
:103F6000B13D80E99DE10E94F23D1092180210924D
:103F70001702CE0101960E94E52B0E94B74142C66E
:103F80000E949241809104079091050797FF3AC6DD
:103F900080910A0790910B07019790930B078093EC
:103FA0000A07109205071092040731C483EF97E0C7
:103FB0000E94B73D8091170290911802892B09F455
:103FC00080C1CE014F960E94C02D0E94512860935F
:103FD00000077093010780930207909303078BEA11
:103FE00098E00E94343D12E0109320098CE0809309
:103FF000210964E774E087EA98E00E941B2C82E0C4
:1040000092E00E94F23D6BE074E0CE0149960E947E
:10401000F22B6BA170E0CE010D960E94EB416AA1DC
:1040200070E0CE0101960E94EB41BE016F5F7F4FB1
:10403000CE0107960E94EA2BBE01675E7F4FCE013C
:1040400007960E94D428BE01635F7F4F0E94D42848
:10405000BC01CE0143960E94EA2BCE0107960E9436
:10406000E52BCE0101960E94E52BCE010D960E9414
:10407000E52B87E38093200980E480932109CE011A
:1040800043960E94A63E66E374E0CE010D960E9420
:10409000F22B60913D0670913E06CE0107960E947C
:1040A000EB41BE01635F7F4FCE0101960E94EA2B78
:1040B000BE01695F7F4FCE0101960E94D428BC01EA
:1040C000CE0143960E94FA28CE0101960E94E52B6C
:1040D000CE0107960E94E52B1093200982E380937E
:1040E0002109CE0143960E94A63E6CE774E0CE0102
:1040F0000D960E94E5286091000270910102CE01A8
:1041000085960E94EB4160913B0670913C06CE0182
:1041100007960E94EB41BE01635F7F4FCE0101967F
:104120000E94EA2BBE01695F7F4FCE0101960E947B
:10413000D4288C0144E050E06AE874E00E94A7288B
:10414000882309F45CC5BE016B5D7F4FC8010E94E6
:10415000D428BC01CE0143960E94FA28CE010196D4
:104160000E94E52BCE0107960E94E52BCE01859695
:104170000E94E52B12E01093200986E2809321092A
:10418000CE0143960E94A63E87EE97E00E94432E02
:104190006B017C01CE014F960E94432E46015701D0
:1041A000861A970AA80AB90AB501A401CE01079692
:1041B0000E94A52E6FE874E0CE0101960E94F22BBA
:1041C000CE0107960E94432EECE3CE2ED12CE12C9B
:1041D000F12CA70196010E94D74CCE01C7960E94F0
:1041E000EB41CE0107960E94432EA70196010E9443
:1041F000D74CB901CE01C1960E94EB41CE01079682
:104200000E94432E20E13EE040E050E00E94D74C67
:10421000B901CE018B960E94EB41BE016F5F7F4FCB
:10422000CE0185960E94EA2BBE01655D7F4FCE01CF
:104230008596BAD7BE01675E7F4FB6D7BE016F5C69
:104240007F4FB2D7BE01675E7F4FAED7BE01695CBC
:104250007F4FAAD7BC01CE014396CCD7CE0185961D
:104260000E94E52BCE018B960E94E52BCE01C196D4
:104270000E94E52BCE01C7960E94E52B10932009E2
:1042800089E180932109CE0143960E94A63E0E94B7
:10429000B13D80E99DE10E94F23D1092180210921A
:1042A0001702CE0101960E94E52BCE010D960E94C9
:1042B000E52BCE0143960E94E52BCE0149960E9444
:1042C000E52B20913D0630913E06809100029091B1
:1042D00001022817390724F010920B0710920A07E1
:1042E00083E2A9D5892B61F5DCD6009106071091F0
:1042F00007072091080730910907DC01CB01801BDB
:10430000910BA20BB30B8B3F9105A105B105C0F03A
:10431000C8D66093060770930707809308079093A9
:10432000090710920B0710920A0781E090E0909322
:1043300018028093170210923C0610923B0662C44A
:1043400087EE97E00E94432E6B017C01CE0101961F
:104350000E94C02DCE0101960E94432E6C157D0552
:104360008E059F0530F083E390E090930B078093D8
:104370000A0797D6009100071091010720910207C4
:1043800030910307DC01CB01801B910BA20BB30B17
:10439000893E9340A105B10508F039C233C483EFCB
:1043A00097E00E94423280913B0690913C06892B17
:1043B000D1F4CE0101960E94C02D86E0FE01319617
:1043C000ADEEB7E001900D928A95E1F78DEE97E0A2
:1043D0000E94432E4AE00E945E326DE974E08EE353
:1043E00097E00E94062C81E090E090931802809361
:1043F000170212E009E1DD24D3947CE7E72E7BEF7E
:10440000F72E80913A0681115EC08091170290913B
:104410001802892BA1F08BEA98E00E94343D10939A
:1044200020090093210960EA74E087EA98E00E947D
:104430001B2C0E94B13D109218021092170283E0CB
:10444000FAD4892BB1F5D0923A068CEA94E00E9416
:104450004D328BEA98E00E94343D1093200900937E
:10446000210963EB74E087EA98E00E941B2C0E940C
:10447000B13D4DE059ED6FEF7FEF83EF97E00E9484
:1044800081300E94214180913D0690913E06181690
:1044900019067CF48E9DA0018F9D500D9E9D500DA0
:1044A0001124052E000C660B770B83EF97E00E941A
:1044B00081300E9421414FEF5FEFBA0183EF97E017
:1044C0000E9481309ECF80900E0290900F02A090AB
:1044D0001002B0901102A501940160910602709142
:1044E000070280910802909109020E946C4B0E9481
:1044F000D44B6B017C0164EC74E0CE0101960E9408
:10450000F22BA5019401BE016F5F7F4FC6010E948F
:104510008837CE0101960E94E52BB601DD0C880B91
:10452000990B0E94C54920910E0230910F024091D3
:104530001002509111020E94244A9B01AC0160912B
:1045400032067091330680913406909135060E94B0
:10455000074B609332067093330680933406909332
:10456000350668EE73E080E090E063D54EEB5DEFDA
:104570006FEF7FEF83EF97E00E94813080900E0213
:1045800090900F02A0901002B0901102A50194012A
:1045900060910A0270910B0280910C0290910D02C1
:1045A0000E946C4B0E94D44B6B017C0164ED74E063
:1045B000CE0101960E94F22BA5019401BE016F5F0E
:1045C0007F4FC6010E948837CE0101960E94E52BDD
:1045D000B601DD0C880B990B0E94C54920910E0293
:1045E00030910F0240911002509111020E94244A12
:1045F0009B01AC01609132067091330680913406C4
:10460000909135060E94074B6B017C016093320646
:104610007093330680933406909335064EEB5DEF2E
:104620006FEF7FEF83EF97E00E948130809012025E
:1046300090901302A0901402B0901502C701B60129
:104640009058A50194010E946C4B0E94054C0E9459
:10465000D44B6B017C0160EE74E0CE0101960E94A8
:10466000F22BA5019401BE016F5F7F4FC6010E942E
:104670001E36CE0101960E94E52BB601DD0C880B9B
:10468000990B0E94C549209112023091130240916A
:104690001402509115020E94244A9B01AC016091C2
:1046A00032067091330680913406909135060E944F
:1046B000084B6093320670933306809334069093D0
:1046C000350681E090E0909318028093170282E310
:1046D00090E090930B0780930A0780913D0690919C
:1046E0003E06019690933E0680933D0660913B0600
:1046F00070913C068B010F5F1F4F10933C06009397
:104700003B068DEE97E00E94432E6B017C0120E07A
:1047100030E040E752E46091020270910302809120
:104720000402909105020E94244A4B015C01B801E9
:10473000110F880B990B0E94C5499B01AC01C50163
:10474000B4010E94244A0E94D44BAB01BC014C0D21
:104750005D1D6E1D7F1DCE0101960E94A52E86E077
:10476000FE013196A7EEB7E001900D928A95E1F730
:1047700087EE97E00E94432E4AE00E945E326DE988
:1047800074E08EE397E00E94062C67EF74E08EE3FE
:1047900097E00E941B2C6091320670913306809145
:1047A00034069091350642E050E00E94A0322AC2C1
:1047B0008BEA98E00E94343D109220098CE08093AF
:1047C000210969E075E087EA98E00E941B2C0E94AD
:1047D000B13D109218021092170280E195E00E94FC
:1047E0004D3210C25ED40091000710910107209154
:1047F000020730910307DC01CB01801B910BA20B58
:10480000B30B893E9340A105B10508F4FBC181E0DB
:1048100090E09093180280931702F4C181E090E039
:1048200090931802809317023CD46093060770930C
:1048300007078093080790930907EE24E394F12C6F
:104840000C94111C0E944741609104077091050768
:1048500061157105C1F1072E000C880B990B0E94A0
:10486000C5492DEC3CEC4CEC5DE30E94244A2091C0
:1048700036063091370640913806509139060E942D
:10488000084B6B017C0120E030E0A9010E94BF4988
:1048900087FD09C0C0923606D0923706E0923806EE
:1048A000F092390608C01092360610923706109220
:1048B00038061092390610931802009317021092CE
:1048C00005071092040762E275E0CE0101968AD7CF
:1048D00060913606709137068091380690913906BE
:1048E000AE014F5F5F4F0E94B534CE0101966DD788
:1048F0001EC981E090E09093180280931702D1D3F3
:104900006093060770930707809308079093090741
:10491000209136063091370640913806509139067D
:10492000609112027091130280911402909115020D
:104930000E94244A20E030E04AE754E40E94244ADE
:1049400020E038EC4FEA57E40E946C4B609312026F
:1049500070931302809314029093150260932807BA
:104960007093290780932A0790932B070E94FA3EA1
:1049700049C10E9447416091040770910507611584
:104980007105C1F1072E000C880B990B0E94C549D7
:104990002DEC3CEC4CEC5DE30E94244A2091360661
:1049A0003091370640913806509139060E94084BE5
:1049B0006B017C0120E030E0A9010E94BF4987FD26
:1049C00009C0C0923606D0923706E0923806F092BF
:1049D000390608C010923606109237061092380633
:1049E00010923906109318020093170210920507CF
:1049F0001092040762E275E0CE010196F3D6609151
:104A00003606709137068091380690913906AE01CE
:104A10004F5F5F4F0E94B534CE010196D6D609C9CB
:104A200081E090E090931802809317023AD360934C
:104A30000607709307078093080790930907CE0134
:104A40000D960E94C02D088910E0E988F12CCC2435
:104A5000C394D12C92E0B92E2CE0A22E34E1932EF7
:104A600048E2842E59E1752E83E2E5D1892B99F530
:104A700018D32091060730910707409108075091FD
:104A80000907DC01CB01821B930BA40BB50B8B3FF9
:104A90009105A105B105F8F081E090E0909318022E
:104AA00080931702FED260930607709307078093E6
:104AB00008079093090782E1898387E08A8385E16B
:104AC0008B830C83ED821E82CE01019624D181E07E
:104AD000809316024ECC0E9447418091040790912A
:104AE0000507009731F1E80EF91EF7FE0AC00150E4
:104AF0001109FBE3EF2EF12C0F3F3FEF130779F085
:104B000008C08CE3E816F10424F00F5F1F4FE12C7E
:104B1000F12C083111052CF000E010E002C007E193
:104B200010E0D0921802C09217021092050710925E
:104B300004078091170290911802892B09F494CFF1
:104B40008BEA98E00E94343DB0922009A09221099E
:104B500080910A0790910B07989EB001999E700D65
:104B600011246C5C7D4F87EA98E065D680E993E17B
:104B70000E94F23D6BE074E0CE01079633D6B70198
:104B8000CE014F960E94EB41B801CE0143960E94A0
:104B9000EB41BE016D5E7F4FCE0149961BD6BE0133
:104BA000695F7F4FCE014996FFD2BE01615E7F4FA4
:104BB000FBD2BC01CE0101960DD6CE01499605D699
:104BC000CE01439602D6CE014F96FFD580922009A2
:104BD00070922109CE0101960E94A63E0E94B13D2D
:104BE00080E99DE10E94F23D109218021092170296
:104BF000CE010196EAD5CE010796E7D535CFC8019B
:104C0000B3D5A1CAC85BDF4F0FB6F894DEBF0FBEA5
:104C1000CDBFDF91CF911F910F91FF90EF90DF906B
:104C2000CF90BF90AF909F908F907F90089590E02D
:104C3000FC013197E231F10508F04EC08827EE58AB
:104C4000FF4F8F4F0C94154D809180008F7703C0DC
:104C5000809180008F7D80938000089580918000F6
:104C6000877FF9CF84B58F7702C084B58F7D84BDEF
:104C700008958091B0008F7703C08091B0008F7D40
:104C80008093B0000895809190008F7707C0809145
:104C900090008F7D03C080919000877F809390006B
:104CA00008958091A0008F7707C08091A0008F7D2C
:104CB00003C08091A000877F8093A0000895809119
:104CC00020018F7707C0809120018F7D03C08091E4
:104CD0002001877F80932001089581E080939506CD
:104CE00088E68093B706109296061092B8066FE099
:104CF0008BED97E097D40E94AF3361E088E60E9485
:104D00006D3310924806809347068BED97E042C4BE
:104D100008950E94444FFF920F931F93CF93DF9308
:104D20008C01FF24F394F0929506D8E6D093B70651
:104D3000109296061092B80660E08BED97E072D460
:104D4000F8012581CAE0822F6C2F0E94B84C682F91
:104D5000660F860F880F682F620F8BED97E062D485
:104D6000F8012481822F6C2F0E94B84C682F660FA7
:104D7000860F880F682F620F8BED97E053D4F801F0
:104D80002381822F6C2F0E94B84C682F660F860FEC
:104D9000880F682F620F8BED97E044D460E08BEDB5
:104DA00097E040D4F8012281822F6C2F0E94B84CEA
:104DB000682F660F860F880F682F620F8BED97E0C4
:104DC00031D4F8012181822F6C2F0E94B84C682FBA
:104DD000660F860F880F682F620F8BED97E022D445
:104DE000F8012081822F6C2F0E94B84C682F660F2B
:104DF000860F880F682F620F8BED97E013D40E9407
:104E0000AF336BDFC82FF0929506D093B7061092A0
:104E100096061092B8066FE08BED97E003D46C2FE6
:104E20006F778BED97E0FED3DF91CF911F910F91BC
:104E3000FF900C94AF33CF93DF93282F30E0F9012C
:104E4000E25CFC4E8491F901E850FD4ED491F901E9
:104E5000EE54FD4EC491CC2389F08111E8DEEC2F95
:104E6000F0E0EE0FFF1FE856FD4EA591B491EC91D6
:104E7000ED2381E090E021F480E002C080E090E04A
:104E8000DF91CF9108951F93CF93DF93282F30E0C8
:104E9000F901E25CFC4E8491F901E850FD4ED49199
:104EA000F901EE54FD4EC491CC23B9F0162F8111B7
:104EB000BEDEEC2FF0E0EE0FFF1FE258FD4EA59195
:104EC000B4919FB7F894111104C08C91D095D82358
:104ED00002C0EC91DE2BDC939FBFDF91CF911F913D
:104EE0000895CF93DF9390E0FC01E850FD4E2491AC
:104EF000FC01EE54FD4E8491882361F190E0880F0F
:104F0000991FFC01EC59FD4EC591D491FC01E2586A
:104F1000FD4EA591B491611109C09FB7F8948881A5
:104F2000209582238883EC912E230BC0623061F49C
:104F30009FB7F8948881322F309583238883EC9132
:104F40002E2B2C939FBF06C08FB7F894E8812E2B91
:104F500028838FBFDF91CF9108950F931F93CF9335
:104F6000DF93EC018B0161E08889BBDF61E0888918
:104F70008ADF61E08A89B5DF60E08A8984DF8C8915
:104F80009D898F3F2FEF920729F061E0AADF61E052
:104F90008C8979DF198F088F61E070E0CE0172D3C0
:104FA000CE010E9442328EA99FA98F3F4FEF9407F6
:104FB000B1F028AD39AD2F3F3F4F89F02AAD3BAD61
:104FC0002F3F3F4F61F061E08CDF61E088AD89DF0A
:104FD00061E08AADDF91CF911F910F9182CFDF9178
:104FE000CF911F910F9108953FB7F89480914E068D
:104FF00090914F06A0915006B091510626B5A89BFE
:1050000005C02F3F19F00196A11DB11D3FBFBA2F5A
:10501000A92F982F8827820F911DA11DB11DBC01BA
:10502000CD0142E0660F771F881F991F4A95D1F77F
:1050300008958F929F92AF92BF92CF92DF92EF929C
:10504000FF926B017C01D0DF4B015C01C114D104E4
:10505000E104F104E9F0C8DFDC01CB01881999090A
:10506000AA09BB09883E9340A105B10578F321E068
:10507000C21AD108E108F10888EE880E83E0981E74
:10508000A11CB11CC114D104E104F10421F7DECF4D
:10509000FF90EF90DF90CF90BF90AF909F908F9058
:1050A00008952FB7F89460914A0670914B0680914D
:1050B0004C0690914D062FBF08951F920F920FB688
:1050C0000F9211242F933F938F939F93AF93BF938E
:1050D00080914A0690914B06A0914C06B0914D06E6
:1050E0003091490623E0230F2D3720F40196A11DAE
:1050F000B11D05C026E8230F0296A11DB11D209306
:10510000490680934A0690934B06A0934C06B093B1
:105110004D0680914E0690914F06A0915006B09199
:1051200051060196A11DB11D80934E0690934F0626
:10513000A0935006B0935106BF91AF919F918F916C
:105140003F912F910F900FBE0F901F901895EF92E7
:10515000FF920F931F93CF93DF936115710511F4A5
:1051600080E01BC041155105B9F07B01EC018C8139
:105170009D818A01080F191FB801CE01CED2882364
:1051800079F3288139818C819D81B701820F931F2A
:105190000E94584F1D830C8381E0DF91CF911F91B6
:1051A0000F91FF90EF900895CF93DF93EC01FB01F7
:1051B0004481558160817181CADF811102C0CE01B5
:1051C000D3D2CE01DF91CF910895CF93DF93EC013D
:1051D0006115710551F0FB0101900020E9F731974D
:1051E000AF01461B570BD2D201C0BED2CE01DF9118
:1051F000CF910895CF93DF93EC01FB0186179707BA
:1052000051F0608171816115710521F044815581F2
:10521000BDD201C0A9D2CE01DF91CF910895CF9226
:10522000DF92EF92FF920F931F93CF93DF936C0166
:105230007A018B01C0E0D0E0CE15DF0581F0D80106
:105240006D918D01D601ED91FC910190F081E02DE1
:10525000C6011995892B11F02196EECF7E01C70169
:10526000DF91CF911F910F91FF90EF90DF90CF9042
:105270000895FC01538D448D252F30E0842F90E05C
:10528000821B930B541710F0CF9608950197089541
:10529000FC01918D828D981761F0828DDF01A80F3E
:1052A000B11D5D968C91928D9F5F9F73928F90E060
:1052B00008958FEF9FEF0895FC01918D828D9817CF
:1052C00031F0828DE80FF11D858D90E008958FEF0C
:1052D0009FEF0895FC01918D228D892F90E0805CD5
:1052E0009F4F821B91098F73992708958EE397E052
:1052F000F1DF21E0892B09F420E0822F0895FC01E1
:10530000848DDF01A80FB11DA35ABF4F2C91848D4E
:1053100090E001968F739927848FA689B7892C9383
:10532000A089B1898C91837080648C93938D848DD6
:10533000981306C00288F389E02D80818F7D8083D9
:105340000895EF92FF920F931F93CF93DF93EC0199
:1053500081E0888F9B8D8C8D981305C0E889F98931
:10536000808185FD25C0F62E0B8D10E00F5F1F4F4D
:105370000F731127E02E8C8DE8120BC00FB607FCBF
:10538000FACFE889F989808185FFF5CFCE01B7DFB3
:10539000F2CF8B8DFE01E80FF11DE35AFF4FF08233
:1053A0009FB7F8940B8FEA89FB89808180620AC0DD
:1053B0009FB7F894EE89FF896083E889F989808135
:1053C0008370806480839FBF81E090E0DF91CF9104
:1053D0001F910F91FF90EF900895CF93DF93EC0111
:1053E000888D8823C1F0EA89FB89808185FD05C00D
:1053F000A889B9898C9186FD0EC00FB607FCF5CF40
:10540000808185FFF2CFA889B9898C9185FFEDCF86
:10541000CE0175DFE8CFDF91CF91089580E090E075
:10542000892B19F063DF811125C080E090E0892B82
:1054300041F080E090E0892B21F00E940000811172
:105440001CC080E090E0892B41F080E090E0892B47
:1054500021F00E940000811113C080E090E0892BB0
:10546000A1F080E090E0892B81F00E940000811182
:105470000AC008950E940000D8CF0E940000E1CF2A
:105480000E940000EACF0C940000089580E290E0B2
:10549000089586E090E0089584E292E0089580E81F
:1054A00090E00895EF92FF920F931F93CF93DF93B5
:1054B0008C017B01C1E0D0E0D801ED91FC9101901D
:1054C000F081E02DC80119958C179D0754F0CE1579
:1054D000DF0521F4F801D78BC68B03C0CC0FDD1F8D
:1054E000EBCFD80156968D919C915797DF91CF9134
:1054F0001F910F91FF90EF90089580E190E0089543
:1055000085E090E008958FE192E0089585ED809325
:10551000BC008091BC0084FDFCCF1092FF06089572
:1055200040917206262F30E0240F311D21323105C3
:10553000DCF42091FF062430C9F4FC0180E090E007
:10554000861758F4309172062191DC01AE5AB94F9A
:10555000A30FB11D2C930196F3CF80917206680FB3
:105560006093720680E0089581E0089582E00895D6
:10557000089508950895E091480680914706E81738
:1055800030F4F0E0E754F94F808190E008958FEF18
:105590009FEF08959091480680914706981750F420
:1055A000E92FF0E0E754F94F208130E09F5F9093BE
:1055B000480602C02FEF3FEFC901089580914706CA
:1055C00090E020914806821B91090895CF92DF92C6
:1055D000EF92FF920F931F93CF93DF937C01CB0148
:1055E0008A0120919506222389F0EB016B01C40EFC
:1055F000D51ECC15DD0561F06991D701ED91FC91C7
:105600000190F081E02DC7011995F3CF642F88DF59
:10561000C801DF91CF911F910F91FF90EF90DF9024
:10562000CF900895CF93DF931F92CDB7DEB76983F4
:10563000209195062223D1F02091B806203240F027
:1056400021E030E0FC013383228380E090E014C04D
:1056500080919606E82FF0E0E956F94F9981908302
:105660008F5F809396068093B80604C061E0CE01F8
:10567000019656DF81E090E00F90DF91CF91089581
:1056800080E008950F931F93CF93DF93EC010ADF1F
:105690008EA99FA90196D1F188AD99AD0196B1F17E
:1056A0008AAD9BAD019691F1E881F9810480F58185
:1056B000E02DCE0119958C01E881F9810680F781F2
:1056C000E02DCE01199520E030E082179307F1F02C
:1056D0004E895F89022E02C0559547950A94E2F7DC
:1056E00040FF11C0F801E20FF31F1081612F6470B9
:1056F0008AADC9DB612F627088ADC5DB612F617037
:105700008EA9C1DB03C02F5F3F4FDFCF8E899F89FA
:10571000DF91CF911F910F9108950F931F93CF9316
:10572000DF93EC0188819981009729F02A813B81E0
:105730002617370788F48B016F5F7F4F0E94644EF6
:10574000009761F0998388831B830A832C813D81B4
:10575000232B11F4FC01108281E001C080E0DF9175
:10576000CF911F910F910895CF93DF93EC01888122
:105770009981009711F00E94DB4D198218821D82D9
:105780001C821B821A82DF91CF910895EF92FF92C3
:105790000F931F93CF93DF93EC017B018A01BA0132
:1057A000BCDF811103C0CE01DFDF07C01D830C8386
:1057B000B701888199810E94584FCE01DF91CF9126
:1057C0001F910F91FF90EF900895FC0180819181CE
:1057D0000C94DB4DFC01118210821382128215821F
:1057E000148208CDFC01118210821382128215826C
:1057F00014826115710549F0FB0101900020E9F761
:105800003197AF01461B570BC1CF08956115710544
:1058100079F0FB0101900020E9F73197AF01461BB9
:10582000570BDC01ED91FC910280F381E02D19947E
:1058300080E090E00895EACF1F920F920FB60F928A
:1058400011240BB60F922F933F934F935F936F9357
:105850007F938F939F93AF93BF93EF93FF938EE3C9
:1058600097E04DDDFF91EF91BF91AF919F918F91A7
:105870007F916F915F914F913F912F910F900BBE50
:105880000F900FBE0F901F9018951F920F920FB69A
:105890000F9211240BB60F922F938F939F93EF9338
:1058A000FF93E0914E07F0914F078081E0915407FC
:1058B000F091550782FD12C09081809157078F5F4C
:1058C0008F7320915807821751F0E0915707F0E04D
:1058D000E25CF84F958F8093570701C08081FF915C
:1058E000EF919F918F912F910F900BBE0F900FBE54
:1058F0000F901F9018952F923F924F925F926F9248
:105900007F928F929F92AF92BF92CF92DF92EF924F
:10591000FF920F931F93CF93DF9300D01F92CDB7C9
:10592000DEB79C838B83FC0184A195A1A6A1B7A1BE
:105930000097A105B10509F1DCF3EB81FC8104A519
:1059400015A526A537A5081719072A073B070CF048
:1059500000C1840F951FA61FB71F77FF09C08017CE
:105960009107A207B30714F4D901C801EB81FC81A8
:1059700084A395A3A6A3B7A3ECC0DB01CA018095BD
:105980009095A095B0958827B7FD83959927AA276C
:10599000BB27EB81FC8195AB84AB16821782108606
:1059A00011866A017B0177FF08C0F094E094D094DF
:1059B000C094C11CD11CE11CF11CEB81FC81C4A270
:1059C000D5A2E6A2F7A210A211A212A213A21282DD
:1059D000138214821582828D938D208D318D0685E0
:1059E000178526883788019709F08BC0209FC00152
:1059F000219F900D309F900D11246CE370E00E9468
:105A0000C44C048D158D9B01DB010E941D4D9B0133
:105A1000AC01D1010E94294D9801220F331F032EA2
:105A2000000C440B550B0E94F94C49015A01EB81C3
:105A3000FC8120A731A742A753A7868D978D9A8313
:105A400089832C01990F66087708D8010E94294D97
:105A5000A30192010E94F94CEB81FC8124A735A798
:105A600046A757A7D501C401820F931FA41FB51FD6
:105A7000C816D906EA06FB06F4F4A7019601C3018D
:105A8000B2010E94A94C29813A81200F311F032EB7
:105A9000000C440B550B0E94F94CEB81FC8120A7B4
:105AA00031A742A753A7C21AD30AE40AF50AC4A62B
:105AB000D5A6E6A6F7A6209EB001219E700D309EC9
:105AC000700D1124072E000C880B990B0E94C549FC
:105AD0009B01AC0160E070E080E090E40E946C4BC0
